:1000000000500020450000004100000041000000B9
:10001000410000004100000041000000000000001D
:10002000000000000000000000000000011B0000B4
:100030004100000000000000A11B0000850000003E
:10004000FEE7000008B50A4B0A4A03E052F8041B19
:1000500043F8041B08498B42F8D3084B02E0002206
:1000600043F8042B064A9342F9D300F0F1F8FEE777
:1000700000000020E81E000008000020080000200A
:10008000D11B002008B501F0C0FB08BD0B4B9A6CDA
:1000900042F001029A6401229A62084B9B6A13F0B3
:1000A000020FFAD0064B0022DA61064AD2F8D030AD
:1000B00043F08003C2F8D030704700BF00200840F2
:1000C0000010084000200240144BDA6E42F001029A
:1000D000DA6601229A62114B9B6A13F0020FFAD082
:1000E0000E4B9A6C42F001029A6401229A620B4B09
:1000F0009B6A13F0020FFAD0094B1022DA60094A0A
:100100009A60A3F500231A225A6203229A6270228F
:10011000DA6240F201321A63704700BF00200840E3
:10012000001008400F00002007E0064B9B6913F009
:10013000200FFAD10130034B1A600278002AF4D163
:10014000704700BF001000400A4BDA6A42F001021B
:10015000DA6201229A62074B9B6A13F0020FFAD00F
:10016000054B07221A60054B1B6913F0C04FFAD0EC
:10017000704700BF00200840000004400010044009
:10018000018000234380054B1860044B1B6913F06A
:10019000020FFAD0014B03221A617047001004408D
:1001A00008B5044B8022C3F8B0204FF4FA7001F078
:1001B000BDFAF6E70020024038B50446064D4FF080
:1001C000FF31286801F0C4FA2046FFF7ADFF286828
:1001D00001F0EEFA38BD00BF1800002008B5054850
:1001E000FFF7EAFF0448FFF7E7FF40F2EE2001F0D7
:1001F0009DFAF7E7501E0000281E000008B5FFF723
:10020000A3FF0F4C40F602012046FFF7B9FF0D484F
:10021000FFF7D2FF41F603012046FFF7B1FF41F699
:1002200001012046FFF7ACFF0748FFF7C5FF07486D
:10023000FFF7C2FF4FF4966001F078FAF7E700BFCE
:1002400008000020001E0000CC1D0000A01D0000C2
:1002500000B597B0FFF71AFFFFF736FF1E4801F011
:100260006CFA1E4B18601E4C0DF13C0CA646BEE805
:100270000F00ACE80F009EE807008CE807000021A3
:100280000FA801F020FA174B18600DF1200C04F1B3
:100290001C0EBEE80F00ACE80F009EE807008CE8DB
:1002A0000700002108A801F00EFA0F4B18600DF1AD
:1002B000040E04F1380CBCE80F00AEE80F009CE817
:1002C00007008EE80700002101A801F0FCF9074BA8
:1002D000186001F0F3F9FEE77C1E00001800002012
:1002E000841E000024000020200000201C000020AC
:1002F00070470000034B0360034B0B6080231360C7
:10030000704700BF2802002028000020FEE7FEE71B
:10031000084B1B681B6823B9074B4FF0FF321A606C
:100320007047044B1B68DB68DB685A68024B1A6035
:10033000704700BFF0020020880200202DE9F0473E
:1003400080460D4617469946089EDDF824A00A9C73
:100350009200A521206B01F0FDFC236B07F1804288
:10036000013A03EB820727F00707ADB34FF0000C0B
:10037000BCF10F0F09D815F80C3004EB0C0282F811
:10038000343013B10CF1010CF2E7002384F8433050
:10039000062E00D90626E66266640025A564201DA7
:1003A00000F073FD04F1180000F06FFD2461C6F148
:1003B0000706A6616462E564256584F854504A46E0
:1003C0004146384601F086FB2060BAF1000F01D0AB
:1003D000CAF80040BDE8F087002384F83430D7E73E
:1003E00038B5002407E004EB840293000E4818445B
:1003F00000F040FD0134062CF5D90C4D284600F0E4
:1004000039FD0B4C204600F035FD0A4800F032FD66
:10041000094800F02FFD094800F02CFD084B1D6035
:10042000084B1C6038BD00BF1C03002008030020DF
:10043000F4020020D8020020C4020020AC020020F8
:10044000F0020020EC02002010B5044601F06AFB27
:10045000214A136801331360204B1B685BB1204BAA
:100460001B686BB91D4B1B68DA6AE36A9A4207D8AE
:100470001A4B1C6004E0194B1C601368012B28D038
:10048000184A136801331360E06A01238340164A57
:1004900011680B43136000EB8000211D134B03EB2D
:1004A000800000F0F5FC01F05FFB0D4B1B687BB199
:1004B0000A4B1B68DA6AE36A9A4209D24FF0E023DA
:1004C0004FF08052C3F8042DBFF34F8FBFF36F8FEF
:1004D00010BDFFF785FFD3E7A8020020A803002086
:1004E0009C0200208C020020A00200201C0300209F
:1004F00010B5044690F8553063B1012B11D0022B92
:100500000ED04FF0400383F31188BFF36F8FBFF31A
:100510004F8FFEE7006B01F06FFA204601F06CFA96
:1005200010BD01F069FAFBE70F4B1B68D3B110B5A2
:1005300001F0F8FA0D4BDB68DC68201D00F0CCFC04
:100540000B4A1368013B1360074A1368013B1360B1
:1005500001F00AFB2046FFF7CBFF034B1B68002B83
:10056000E6D110BD704700BFC0020020C4020020C9
:10057000A802002070B504460D461D4B1E681D4B99
:100580001868043000F0A8FC48B91A4B1B68DB6AF5
:1005900001229A4018490B6823EA02030B60B4F168
:1005A000FF3F0DD03444134B1B685C60A64210D94A
:1005B000124B18680F4B1968043100F074FC70BDC1
:1005C000002DEFD00B4B196804310D4800F060FC92
:1005D000F5E70C4B1868074B1968043100F063FC11
:1005E000094B1B68A342EAD9074B1C60E7E700BF31
:1005F000A4020020A8030020A0020020EC0200209A
:10060000AC020020F00200208802002008B50BE0B8
:100610004FF0E0234FF08052C3F8042DBFF34F8F0B
:10062000BFF36F8FFFF764FEFFF77EFF024B1B687F
:10063000012BEDD8F6E700BF1C03002030B587B0D2
:100640000B9C7CB10C9DB5B158250495049D582D8B
:100650001AD04FF0400383F31188BFF36F8FBFF3BD
:100660004F8FFEE74FF0400383F31188BFF36F8F86
:10067000BFF34F8FFEE74FF0400383F31188BFF3C2
:100680006F8FBFF34F8FFEE7049D0C9D2C630224F8
:1006900085F8554000240394029505AC01940A9C0A
:1006A0000094FFF74BFE0C98FFF7CEFE059807B0BD
:1006B00030BD2DE9F04385B00746884614461E46F6
:1006C000900001F00DF908B38146582001F008F9B7
:1006D0000546A8B1C0F83090002380F85530039348
:1006E00002900D9B01930C9B00933346224641469A
:1006F0003846FFF723FE2846FFF7A6FE012007E055
:10070000484601F079F94FF0FF3001E04FF0FF303B
:1007100005B0BDE8F083000010B588B00024059452
:10072000069407AA06A905A8FFF7E4FD059B029316
:10073000069B019300942346079A0E490E48FFF743
:100740007DFF0E4B186090B14FF0400383F311888A
:10075000BFF36F8FBFF34F8F094B4FF0FF321A601B
:10076000084B01221A60084B1C6001F065FA08B0C2
:1007700010BD00BFD81E00000D060000840200203E
:10078000880200209C020020A4020020024A136874
:1007900001331360704700BF80020020F8B53A4B68
:1007A0001B68002B69D1394B1D6801351D60C5B927
:1007B000374B1B681B6843B14FF0400383F311882C
:1007C000BFF36F8FBFF34F8FFEE7314A1168314B94
:1007D000186810601960304A136801331360FFF71E
:1007E00097FD2E4B1B68AB423DD900272C4B1B6855
:1007F000DB6A03EB83039A002A4B9B58012B00D939
:100800000127294B1B68002B3CD001273AE0012728
:100810001F4B1B681B6843B31D4B1B68DB68DC6800
:1008200063689D4226D3261D304600F055FBA36A1F
:100830001BB104F1180000F04FFBE36A01229A405B
:100840001A49086802430A6003EB83039A003146A1
:100850001448104400F01CFBE26A114B1B68DB6A71
:100860009A42D4D2D4E70027D2E70C4B4FF0FF32A4
:100870001A60BBE7094A1360B8E70D4A13680133F1
:10088000136000273846F8BD80020020A402002033
:10089000F0020020EC0200209002002088020020DC
:1008A000A80300201C03002094020020A0020020C6
:1008B0009802002038B5354B1B6843B94FF0400310
:1008C00083F31188BFF36F8FBFF34F8FFEE701F003
:1008D00029F92E4B1A68013A1A601B68002B4FD178
:1008E0002B4B1B680BB900244BE00024294B1B68E1
:1008F0001BB3284BDB68DC6804F1180000F0ECFA4D
:10090000251D284600F0E8FAE06A01238340224AC8
:1009100011680B43136000EB800029461F4B03EB6B
:10092000800000F0B5FAE26A1D4B1B68DB6A9A4250
:10093000DCD31C4B01221A60D8E70CB1FFF7E8FCAE
:10094000194B1C6884B9174B1C68D4B14FF0E023D5
:100950004FF08052C3F8042DBFF34F8FBFF36F8F5A
:1009600001240EE0013C07D0FFF718FF0028F9D062
:100970000C4B01221A60F5E70B4B00221A60E2E7EC
:10098000002401F0F1F8204638BD00BF80020020AD
:10099000A8020020D8020020A00200201C03002092
:1009A000A8030020940200209802002010B5A8B1EE
:1009B0000446104B1B6843B14FF0400383F311888A
:1009C000BFF36F8FBFF34F8FFEE7FFF7DFFE00210E
:1009D0002046FFF7CFFDFFF76DFF48B94FF0E0234A
:1009E0004FF08052C3F8042DBFF34F8FBFF36F8FCA
:1009F00010BD00BF8002002008B52D4B1B681BB145
:100A00002C4B01221A6008BD2A4B00221A602A4B87
:100A10001B681B6B1A68B2F1A53F03D15A68B2F18B
:100A2000A53F1BD0244B186819683431FFF76EFCC2
:100A3000224B1B68B3FA83F3DBB2C3F11F0303EB52
:100A400083018A001E498A588AB94FF0400383F314
:100A50001188BFF36F8FBFF34F8FFEE79A68B2F133
:100A6000A53FDFD1DB68B3F1A53FDBD1E0E7144858
:100A700003EB83018A00024451684968516003EB2B
:100A8000830C4FEA8C0208320244914209D003EBF6
:100A900083039A000A4B13445B68DA68064B1A60BA
:100AA000B1E7486862469100054A0A445060EEE7A3
:100AB0008002002094020020A8030020A002002051
:100AC0001C03002058B110B50C46094A11681831B2
:100AD00000F0E9F901212046FFF74CFD10BD4FF071
:100AE000400383F31188BFF36F8FBFF34F8FFEE78F
:100AF000A803002038B5C368DC6824B304F11805E6
:100B0000284600F0E9F9184B1B682BBB251D284629
:100B100000F0E2F9E06A01238340144A11680B43B4
:100B2000136000EB80002946114B03EB800000F0BE
:100B3000AFF9E26A0F4B1B68DB6A9A4211D90120B8
:100B40000D4B186038BD4FF0400383F31188BFF39D
:100B50006F8FBFF34F8FFEE72946084800F098F9E2
:100B6000E7E70020EEE700BF80020020A00200209F
:100B70001C030020A803002094020020D8020020BB
:100B8000034B1B680360034B1B684360704700BF47
:100B900090020020A4020020D8B170B50C46054692
:100BA00001B300F0BFFF1B4B19686B68C81A2268BD
:100BB000B2F1FF3F27D0184E3668D5F800C0B445D3
:100BC00001D08B4224D9824215D80023236001240E
:100BD0001AE04FF0400383F31188BFF36F8FBFF328
:100BE0004F8FFEE74FF0400383F31188BFF36F8F01
:100BF000BFF34F8FFEE75B1A134423602846FFF7CD
:100C0000BFFF002400E0002400F0AEFF204670BDCE
:100C10000124F9E7A402002090020020014B0122E8
:100C20001A60704794020020054B1B6833B1054BD6
:100C30001B680BB1002070470220704701207047ED
:100C40009C02002080020020002848D038B50446CD
:100C5000C36A254A1268D26A934238D28269002A4E
:100C600005DB214A1268D26AC2F10702826161691A
:100C700003EB83031D4A02EB8303994205D01A4B11
:100C80001B68DB6AE362012038BD251D284600F0A1
:100C900023F938B9E36A01229A4015490B6823EA1F
:100CA00002030B60104B1B68D86AE062012404FA4F
:100CB00000F30F4A11680B43136000EB80002946D4
:100CC0000A4B03EB800000F0E3F82046DCE7426CBF
:100CD000054B1B68DB6A9A4203D30020D4E700204F
:100CE00070470120D0E700BFA80300201C030020AC
:100CF000A002002000284BD038B50446264B1B68C4
:100D0000834208D04FF0400383F31188BFF36F8F05
:100D1000BFF34F8FFEE7836C43B94FF0400383F37B
:100D20001188BFF36F8FBFF34F8FFEE7013B8364E2
:100D3000C16A426C91422DD00BB1002038BD051D17
:100D4000284600F0C9F868B9E36A03EB8302920011
:100D500012498A5832B901229A4011490B6823EA94
:100D600002030B60606CE062C0F10703A361012421
:100D700004FA00F30A4A11680B43136000EB800089
:100D80002946064B03EB800000F082F82046D5E7A9
:100D9000002070470020D1E7A80300201C0300209A
:100DA000A002002000284FD038B50446836C43B918
:100DB0004FF0400383F31188BFF36F8FBFF34F8F62
:100DC000FEE7426C8A4200D20A46E16A914201D0B3
:100DD000012B00D038BD1D4B1B68A3422BD0E26213
:100DE000A369002B02DBC2F10702A261626901EB79
:100DF0008101174B03EB81039A42EBD1251D284655
:100E000000F06AF838B9E36A01229A4011490B6888
:100E100023EA02030B60E06A012383400D4A116854
:100E20000B43136000EB80002946094B03EB800065
:100E300000F02EF8CEE74FF0400383F31188BFF3A4
:100E40006F8FBFF34F8FFEE7704700BFA8030020EE
:100E50001C030020A0020020054B1B6823B1044B9B
:100E60001A68936C01339364014B1868704700BF94
:100E7000A803002000F1080343604FF0FF328260B6
:100E8000C360036100230360704700230361704760
:100E900043684B609A688A60516099600861036892
:100EA00001330360704730B40D68B5F1FF3F11D0D6
:100EB00000F108031C465B681A68AA42FAD9636805
:100EC0004B6099608C606160086103680133036066
:100ED00030BC70470469F2E70369416882688A6040
:100EE000416851605A68824206D0002202611A6845
:100EF000013A1A601868704782685A60F5E703463D
:100F0000406A18B11B6B1868C0F10700704710B534
:100F1000044600F007FEA26BE36B9A4204D0002463
:100F200000F022FE204610BD0124F9E710B504466A
:100F300000F0F8FDA36B23B9012400F015FE204654
:100F400010BD0024F9E770B504461546866B026CA7
:100F50005AB903681BB100200136A66370BD8068D2
:100F6000FFF7C8FE0023A360F6E76DB9406800F004
:100F7000F9FE6368226C13446360A268934219D33C
:100F8000236863602846E7E7C06800F0EBFEE3688B
:100F9000226C51429B1AE3602268934202D2A368FA
:100FA0000B44E360022D01D00020D5E726B1013EBD
:100FB0000020D1E72846CFE70020CDE708B503465B
:100FC000026C62B10846D9681144D960D3F808C0F0
:100FD000614501D31968D960D96800F0C3FE08BD26
:100FE00038B5054600F09EFD95F8454064B201E035
:100FF000013C64B2002C0ADD6B6A43B105F12400A8
:10100000FFF778FD0028F3D0FFF708FEF0E7FF2395
:1010100085F8453000F0A8FD00F084FD95F84440C7
:1010200064B201E0013C64B2002C0ADD2B6943B1DB
:1010300005F11000FFF75EFD0028F3D0FFF7EEFD8D
:10104000F0E7FF2385F8443000F08EFD38BD38B559
:10105000E0B10D46044600F065FD2368E26B216CAB
:1010600001FB0230A0600020A0636360013A02FB34
:101070000133E360FF2384F8443084F84530FDB940
:10108000236963B900F070FD012038BD4FF04003C3
:1010900083F31188BFF36F8FBFF34F8FFEE704F127
:1010A0001000FFF727FD0028ECD04FF0E0234FF0B1
:1010B0008052C3F8042DBFF34F8FBFF36F8FE1E76A
:1010C00004F11000FFF7D6FE04F12400FFF7D2FE72
:1010D000D8E710B5034602980C4631B90060C363E7
:1010E00004640121FFF7B3FF10BD0260F7E740B9C8
:1010F0004FF0400383F31188BFF36F8FBFF34F8F1F
:10110000FEE710B584B01C46844653B192B189B94C
:101110004FF0400383F31188BFF36F8FBFF34F8FFE
:10112000FEE74FF0400383F31188BFF36F8FBFF3E7
:101130004F8FFEE76AB148230393039B482B13D0DC
:101140004FF0400383F31188BFF36F8FBFF34F8FCE
:10115000FEE70029EFD04FF0400383F31188BFF37F
:101160006F8FBFF34F8FFEE7039B012384F8463058
:1011700000949DF818306046FFF7ABFF204604B09E
:1011800010BD40B94FF0400383F31188BFF36F8F58
:10119000BFF34F8FFEE7F0B583B00D461446064609
:1011A00001FB00F0483000F09BFB074650B10023E4
:1011B00080F846300090234600F148022946304628
:1011C000FFF787FF384603B0F0BDF0B585B0019258
:1011D00088B10F461D460446B1B1022D20D1E36B04
:1011E000012B1DD04FF0400383F31188BFF36F8FA5
:1011F000BFF34F8FFEE74FF0400383F31188BFF337
:101200006F8FBFF34F8FFEE7036C002BE5D04FF0DD
:10121000400383F31188BFF36F8FBFF34F8FFEE757
:10122000FFF702FD064658B9019B002B48D04FF04E
:10123000400383F31188BFF36F8FBFF34F8FFEE737
:1012400000263DE02A4639462046FFF77CFE636AC9
:101250007BB948B14FF0E0234FF08052C3F8042D22
:10126000BFF34F8FBFF36F8F00F07EFC012005B0FE
:10127000F0BD04F12400FFF73DFC0028F4D04FF04E
:10128000E0234FF08052C3F8042DBFF34F8FBFF31C
:101290006F8FE9E700F068FC0020E8E702A8FFF79D
:1012A0006FFC012619E0002384F8443021E000237C
:1012B00084F8453023E02046FFF792FEFFF7FAFA64
:1012C00000F030FCA26BE36B9A42BBD3022DB9D085
:1012D000019B002BDED0002EE0D000F045FCFFF794
:1012E00055FA00F01FFC94F8442052B2B2F1FF3FCF
:1012F000D9D094F8452052B2B2F1FF3FD7D000F0D8
:1013000033FC01A902A8FFF747FCD8B92046FFF734
:10131000FEFD0028CFD0019904F11000FFF7D2FBA9
:101320002046FFF75DFEFFF7C5FA0028C8D14FF051
:10133000E0234FF08052C3F8042DBFF34F8FBFF36B
:101340006F8FBDE72046FFF74BFEFFF7B3FA002093
:101350008DE748B108B5002181600160C1600B468E
:101360000A46FFF732FF08BD704710B5024600215C
:101370000120FFF706FF0446FFF7EBFF204610BDF4
:1013800010B582B00B460090002211460120FFF7F5
:10139000AEFE0446FFF7DDFF204602B010BD68B187
:1013A00070B50C460546036C8BB14FF0400383F3D8
:1013B0001188BFF36F8FBFF34F8FFEE74FF04003ED
:1013C00083F31188BFF36F8FBFF34F8FFEE703687E
:1013D000EBB100F091FCEFF311864FF0400383F383
:1013E0001188BFF36F8FBFF34F8FAA6BEB6B9342E4
:1013F00026D995F845305BB20132AA63B3F1FF3FBD
:1014000011D001335BB285F84530012019E08368C3
:10141000002BDED04FF0400383F31188BFF36F8FB2
:10142000BFF34F8FFEE76B6A0BB9012009E005F1AE
:101430002400FFF75FFB38B144B10120206000E0D9
:10144000002086F3118870BD0120FAE70120F8E73B
:1014500070B584B0019158B10446036C8BB14FF064
:10146000400383F31188BFF36F8FBFF34F8FFEE705
:101470004FF0400383F31188BFF36F8FBFF34F8F9B
:10148000FEE7FFF7D1FB054650B9019B5BB14FF07A
:10149000400383F31188BFF36F8FBFF34F8FFEE7D5
:1014A0000026354655E0064653E0013BA36323681A
:1014B0003BB123694BB900F057FB0126304604B01D
:1014C00070BDFFF7C9FCA060F3E704F11000FFF75F
:1014D00011FB0028EFD04FF0E0234FF08052C3F80B
:1014E000042DBFF34F8FBFF36F8FE4E746B14FF08A
:1014F000400383F31188BFF36F8FBFF34F8FFEE775
:1015000000F032FBDAE702A8FFF73AFB01252AE0F8
:10151000002384F8443032E0002384F8453034E07E
:1015200000F000FBA068FFF78FFB064600F01CFBF5
:101530003BE02046FFF754FDFFF7BCF909E02046E9
:10154000FFF74EFDFFF7B6F92046FFF7EFFC002846
:1015500042D100F0E7FAA36B002BA6D1019B002B30
:10156000C4D0002DCFD000F0FFFAFFF70FF900F044
:10157000D9FA94F844305BB2B3F1FF3FC8D094F885
:1015800045305BB2B3F1FF3FC6D000F0EDFA01A9E0
:1015900002A8FFF701FB0028D1D12046FFF7C6FCC7
:1015A0000028C6D02368002BBAD0019904F124008A
:1015B000FFF788FA2046FFF713FDFFF77BF90028B5
:1015C000C7D14FF0E0234FF08052C3F8042DBFF392
:1015D0004F8FBFF36F8FBCE70EB900266EE700F0A8
:1015E000A1FA2046FFF78BFC0146A068FFF7DAFB63
:1015F00000F0BAFAF1E72DE9F843B0B10D46904694
:101600000446D9B100F078FBEFF311874FF04003A7
:1016100083F31188BFF36F8FBFF34F8FA66BCEB9E3
:10162000002087F31188BDE8F8834FF0400383F36F
:101630001188BFF36F8FBFF34F8FFEE7036C002B52
:10164000E0D04FF0400383F31188BFF36F8FBFF3F7
:101650004F8FFEE794F844904FFA89F929462046C7
:10166000FFF7ACFC731EA363B9F1FF3F06D009F18D
:1016700001035BB284F844300120D2E723690BB93F
:101680000120CEE704F11000FFF734FA30B1B8F1D1
:10169000000F05D00120C8F80000C2E70120C0E714
:1016A0000120BEE7842801D0033070470020704736
:1016B000EFF30580003818BF0120704708B5FFF729
:1016C0002BF8002008BD2DE9F04387B00E46446991
:1016D000C4B18569B5B14768D0F80080D0F81090E2
:1016E000B0F90800FFF7DEFF029501940090334641
:1016F0004A4641463846FEF7A1FF0590059807B0D7
:10170000BDE8F083446805680769B0F90800FFF791
:10171000C9FF05AB019300903346BAB22946204673
:10172000FEF7C7FF0128E9D00020E8E708B500B9B7
:101730000120FFF73BF9002008BD08B5416819B149
:101740000120FFF71DFE08BD0120FFF70EFEFAE79E
:1017500030B583B00023019310B30C460546FFF764
:10176000A7FFA0B101AA00212846FFF744FF0128E6
:1017700018D1019BC3B14FF0E0234FF08052C3F862
:10178000042DBFF34F8FBFF36F8F002006E021467B
:101790002846FFF75DFE012808D1002003B030BDC8
:1017A0008020FBE7FF20F9E70020F7E7FF20F5E7BF
:1017B00010B582B0044600230193FFF779FF98B17A
:1017C00001A92046FFF7EBFD01281AD1019BD3B1F7
:1017D0004FF0E0234FF08052C3F8042DBFF34F8F3A
:1017E000BFF36F8F002008E000231A4619462046F9
:1017F000FFF7EBFC012802D0FF2002B010BD002053
:10180000FBE7FF20F9E70020F7E708B5FFF70CFA40
:10181000012800D108BD00F0E5F9FBE7124A12F0FB
:10182000070F1ED0D11D21F00701C1F5C05313448D
:101830000A460E480260002141601344083B23F031
:1018400007030B48036059601960991A51601360CF
:10185000084B1960084B1960084B4FF000421A60A2
:1018600070474FF4C053E4E7CC030020C4030020CA
:10187000C0030020B8030020BC030020AC030020FC
:10188000154B1A461B688342FBD3516802EB010CCF
:10189000844509D0416800EB010C634509D0036021
:1018A000904218D010607047406801445160104663
:1018B000F0E710B4094C2468A3420AD05B681944CD
:1018C000416013681B680360904200D0106010BC38
:1018D00070470460F8E77047C4030020C00300208D
:1018E00038B50446FEF752FF3D4B1B68ABB13D4B8C
:1018F0001B681C4214D1002C6AD004F1080214F0B9
:10190000070F02D022F007020832D2B1364B1B6813
:1019100093421AD335490C681DE0FFF77FFFE6E7D5
:10192000FEF7C8FF0025FEF7F2FC15F0070F55D0B3
:101930004FF0400383F31188BFF36F8FBFF34F8FD6
:10194000FEE7FEF7B7FF0025EDE7FEF7B3FF002542
:10195000E9E721461C466368934202D22368002BC4
:10196000F7D11F4B1B68A34214D00D6808352368BC
:101970000B6063689B1A102B14D9A01810F0070F86
:101980000CD04FF0400383F31188BFF36F8FBFF388
:101990004F8FFEE7FEF78EFF0025C4E743606260CD
:1019A000FFF76EFF626810490B689B1A0B601049C5
:1019B00009688B4201D20E490B600A4B1B68134326
:1019C0006360002323600B4A13680133136000E057
:1019D0000025FEF76FFF002DA7D1A4E7284638BDEC
:1019E000C0030020AC030020BC030020C40300207F
:1019F000B8030020B4030020002834D038B50446D2
:101A0000A0F1080550F8043C174A1268134208D1A7
:101A10004FF0400383F31188BFF36F8FBFF34F8FF5
:101A2000FEE750F8081C41B14FF0400383F31188E2
:101A3000BFF36F8FBFF34F8FFEE723EA020340F837
:101A4000043CFEF7A3FE54F8041C084A13680B4438
:101A500013602846FFF714FF054A1368013313602B
:101A6000FEF728FF38BD7047AC030020BC03002000
:101A7000B003002082B0002301930D4B1B68B3F12B
:101A8000FF3F08D04FF0400383F31188BFF36F8FFF
:101A9000BFF34F8FFEE74FF0400383F31188BFF38E
:101AA0006F8FBFF34F8F019B002BFCD002B07047AC
:101AB0000400002006480068006880F3088862B6C9
:101AC00061B6BFF34F8FBFF36F8F00DF00BF000021
:101AD00008ED00E04FF0807340F8043C21F0010174
:101AE00040F8081C034B40F80C3C40F8202C4038D0
:101AF000704700BF751A00000000000000000000E1
:101B0000074B19680868B0E8F00F80F30988BFF345
:101B10006F8F4FF0000080F311884EF00D0E70476C
:101B2000A80300204FF0400383F31188BFF36F8FA9
:101B3000BFF34F8F0B4A136801331360012B00D0A2
:101B400070474FF0E023D3F8043D13F0FF0FF7D0B8
:101B50004FF0400383F31188BFF36F8FBFF34F8FB4
:101B6000FEE700BF04000020094B1B6843B94FF09B
:101B7000400383F31188BFF36F8FBFF34F8FFEE7EE
:101B8000013B034A13600BB983F31188704700BF10
:101B90000400002000000000000000000000000021
:101BA000EFF30980BFF36F8F0D4B1A6820E9F00F38
:101BB00010602DE908404FF0400080F31188FEF7D7
:101BC0001BFF4FF0000080F31188BDE80840196842
:101BD0000868B0E8F00F80F30988BFF36F8F704793
:101BE000A803002008B54FF0400383F31188BFF32A
:101BF0006F8FBFF34F8FFEF7D1FD28B14FF0E02379
:101C00004FF08052C3F8042D002383F3118808BDE0
:101C10004FF0E022002313619361054B1B680549D7
:101C2000A1FB03139B09013B536107231361704719
:101C300000000020D34D621010B582B02A4B1A78F4
:101C4000D2B20192FF221A701B78DBB28DF80330FA
:101C50009DF8033003F04003244A1370244B0722FD
:101C60001A6009E0224A1368013B13609DF80330B3
:101C70005B00DBB28DF803309DF8033013F0800F6A
:101C8000F0D11B4B1B68042B08D04FF0400383F3AB
:101C90001188BFF36F8FBFF34F8FFEE71B02144A0B
:101CA000136003F4E0631360019BDBB20E4A137010
:101CB0004FF0E023D3F8202D42F46002C3F8202D2A
:101CC000D3F8202D42F06042C3F8202DFFF7A0FF8B
:101CD0000024084B1C60FFF7EDFEFEF78DFEFFF7BA
:101CE000C9FE204602B010BD00E400E0D01B002079
:101CF000CC1B002004000020EFF305830F2B0FD92D
:101D0000114A9B5CDBB2114A12789A4208D94FF013
:101D1000400383F31188BFF36F8FBFF34F8FFEE74C
:101D20004FF0E023D3F80C3D03F4E063084A126857
:101D3000934208D94FF0400383F31188BFF36F8FAC
:101D4000BFF34F8FFEE77047F0E300E0D01B0020A9
:101D5000CC1B002003460244934200D1704703F895
:101D6000011BF9E70A44914200F1FF3300D17047AB
:101D700010B511F8014B914203F8014FF9D110BD94
:101D8000626C655461736B00756172745461736B3E
:101D90000000000064656661756C745461736B00CB
:101DA000454D554C4943415F4343323634305232FE
:101DB000465F4652454552544F535F424C455F483B
:101DC00045415254424541540D0A0000454D554C81
:101DD0004943415F4343323634305232465F4652C4
:101DE000454552544F535F424C455F46414B455F1A
:101DF000434F4E4E45435445445F4F4B0D0A000040
:101E0000454D554C4943415F43433236343052329D
:101E1000465F4652454552544F535F424C455F41E1
:101E200044565F4F4B0D0A00454D554C4943415FA9
:101E30004343323634305232465F4652454552545F
:101E40004F535F4845415254424541540D0A0000EA
:101E5000454D554C4943415F43433236343052324D
:101E6000465F4652454552544F535F554152545474
:101E700041534B5F4F4B0D0A000000000000000073
:101E800000000000941D0000A101000000000000FF
:101E900000000000800000000000000000000000C2
:101EA000881D0000DD0100000000000000000000AF
:101EB000800000000000000000000000801D000005
:101EC000FD01000000000000000000008000000094
:0D1ED000000000000000000049444C4500E7
:041EE000F8B500BF92
:041EE400F8B500BF8E
:081EE800006CDC02AAAAAAAA00
:0400000300000045B4
:00000001FF
