:100000000080002045000000410000004100000089
:10001000410000004100000041000000000000001D
:10002000000000000000000000000000010E0000C1
:100030004100000000000000A10E0000850000004B
:10004000FEE7000008B50A4B0A4A03E052F8041B19
:1000500043F8041B08498B42F8D3084B02E0002206
:1000600043F8042B064A9342F9D300F081F8FEE7E7
:1000700000000020301100000800002008000020CF
:10008000B923002008B500F029FD08BD0A4AD2F8BE
:10009000083643F02003C2F80836084BD3F8002492
:1000A00042F00202C3F80024D3F81C2542F00202F9
:1000B000C3F81C25704700BF00E00F40005002400D
:1000C000134BD3F8182642F00102C3F81826D3F8D0
:1000D000082642F00102C3F808264FF04023D3F867
:1000E000202442F00302C3F82024D3F81C2542F058
:1000F0000302C3F81C2503F5004308225A622C2290
:100100009A627022DA6240F201321A63704700BFCD
:1001100000E00F4007E0064B9B6913F0200FFAD177
:100120000130034B1A600278002AF4D1704700BFF7
:1001300000C0004008B5054A936883F0020393604D
:100140004FF4FA7000F0C3FCF5E700BF0050024026
:1001500008B50548FFF7DEFF0448FFF7DBFF40F274
:10016000EE2000F0B4FCF7E7C0100000981000008B
:1001700000B58FB0FFF78AFFFFF7A2FF124C0DF119
:100180001C0CA646BEE80F00ACE80F009EE8070076
:100190008CE80700002107A800F066FC0B4B1860F4
:1001A000EE4604F11C0CBCE80F00AEE80F009CE822
:1001B00007008EE807000021684600F055FC044B5C
:1001C000186000F04CFCFEE7E81000000C00002076
:1001D0000800002070470000034B0360034B0B60D6
:1001E00080231360704700BF100200201000002021
:1001F000FEE7FEE7084B1B681B6823B9074B4FF06F
:10020000FF321A607047044B1B68DB68DB685A6872
:10021000024B1A60704700BFD80200207002002015
:100220002DE9F04780460D4617469946089EDDF8B1
:1002300024A00A9C9200A521206B00F019FF236BDB
:1002400007F18042013A03EB820727F00707ADB3BD
:100250004FF0000CBCF10F0F09D815F80C3004EB6F
:100260000C0282F8343013B10CF1010CF2E70023D8
:1002700084F84330062E00D90626E662666400251F
:10028000A564201D00F0ABFB04F1180000F0A7FBF3
:100290002461C6F10706A6616462E564256584F8F9
:1002A00054504A464146384600F08EFD2060BAF16F
:1002B000000F01D0CAF80040BDE8F087002384F8A1
:1002C0003430D7E738B5002407E004EB840293000C
:1002D0000E48184400F078FB0134062CF5D90C4D7B
:1002E000284600F071FB0B4C204600F06DFB0A48DD
:1002F00000F06AFB094800F067FB094800F064FB66
:10030000084B1D60084B1C6038BD00BF0403002073
:10031000F0020020DC020020C0020020AC0200201D
:1003200094020020D8020020D402002010B5044618
:1003300000F078FD214A136801331360204B1B68DD
:100340005BB1204B1B686BB91D4B1B68DA6AE36A13
:100350009A4207D81A4B1C6004E0194B1C601368C2
:10036000012B28D0184A136801331360E06A012377
:100370008340164A11680B43136000EB8000211D77
:10038000134B03EB800000F02DFB00F06DFD0D4BD7
:100390001B687BB10A4B1B68DA6AE36A9A4209D28E
:1003A0004FF0E0234FF08052C3F8042DBFF34F8F7E
:1003B000BFF36F8F10BDFFF785FFD3E790020020DA
:1003C0009003002084020020740200208802002094
:1003D0000403002010B5044690F8553063B1012B9A
:1003E00011D0022B0ED04FF0400383F31188BFF3DE
:1003F0006F8FBFF34F8FFEE7006B00F069FC204664
:1004000000F066FC10BD00F063FCFBE70F4B1B68BF
:10041000D3B110B500F006FD0D4BDB68DC68201D84
:1004200000F004FB0B4A1368013B1360074A136892
:10043000013B136000F018FD2046FFF7CBFF034B94
:100440001B68002BE6D110BD704700BFA80200203A
:10045000AC0200209002002070B504460D461D4BF2
:100460001E681D4B1868043000F0E0FA48B91A4BBA
:100470001B68DB6A01229A4018490B6823EA0203D1
:100480000B60B4F1FF3F0DD03444134B1B685C602C
:10049000A64210D9124B18680F4B1968043100F0AE
:1004A000ACFA70BD002DEFD00B4B196804310D482C
:1004B00000F098FAF5E70C4B1868074B19680431FF
:1004C00000F09BFA094B1B68A342EAD9074B1C605A
:1004D000E7E700BF8C020020900300208802002084
:1004E000D402002094020020D802002070020020D4
:1004F00008B50BE04FF0E0234FF08052C3F8042D15
:10050000BFF34F8FBFF36F8FFFF764FEFFF77EFFE0
:10051000024B1B68012BEDD8F6E700BF0403002057
:1005200030B587B00B9C7CB10C9DB5B158250495B6
:10053000049D582D1AD04FF0400383F31188BFF368
:100540006F8FBFF34F8FFEE74FF0400383F31188A7
:10055000BFF36F8FBFF34F8FFEE74FF0400383F37E
:100560001188BFF36F8FBFF34F8FFEE7049D0C9D83
:100570002C63022485F8554000240394029505ACB1
:1005800001940A9C0094FFF74BFE0C98FFF7CEFEF7
:10059000059807B030BD2DE9F04385B00746884681
:1005A00014461E46900000F007FB08B38146582011
:1005B00000F002FB0546A8B1C0F83090002380F897
:1005C0005530039302900D9B01930C9B009333468F
:1005D000224641463846FFF723FE2846FFF7A6FE8F
:1005E000012007E0484600F073FB4FF0FF3001E0C8
:1005F0004FF0FF3005B0BDE8F083000010B588B0C3
:1006000000240594069407AA06A905A8FFF7E4FDAF
:10061000059B0293069B019300942346079A0E497B
:100620000E48FFF77DFF0E4B186090B14FF040036E
:1006300083F31188BFF36F8FBFF34F8F094B4FF0D8
:10064000FF321A60084B01221A60084B1C6000F050
:1006500083FC08B010BD00BF20110000F1040000B1
:100660006C02002070020020840200208C02002016
:10067000024A136801331360704700BF680200200C
:10068000F8B53A4B1B68002B69D1394B1D68013511
:100690001D60C5B9374B1B681B6843B14FF0400361
:1006A00083F31188BFF36F8FBFF34F8FFEE7314A9B
:1006B0001168314B186810601960304A13680133B3
:1006C0001360FFF797FD2E4B1B68AB423DD9002707
:1006D0002C4B1B68DB6A03EB83039A002A4B9B5865
:1006E000012B00D90127294B1B68002B3CD0012787
:1006F0003AE001271F4B1B681B6843B31D4B1B6867
:10070000DB68DC6863689D4226D3261D304600F016
:100710008DF9A36A1BB104F1180000F087F9E36AB0
:1007200001229A401A49086802430A6003EB8303D6
:100730009A0031461448104400F054F9E26A114B13
:100740001B68DB6A9A42D4D2D4E70027D2E70C4B6D
:100750004FF0FF321A60BBE7094A1360B8E70D4A51
:1007600013680133136000273846F8BD6802002083
:100770008C020020D8020020D40200207802002041
:100780007002002090030020040300207C0200205F
:10079000880200208002002038B5354B1B6843B921
:1007A0004FF0400383F31188BFF36F8FBFF34F8F78
:1007B000FEE700F037FB2E4B1A68013A1A601B68FF
:1007C000002B4FD12B4B1B680BB900244BE00024AE
:1007D000294B1B681BB3284BDB68DC6804F118004D
:1007E00000F024F9251D284600F020F9E06A0123D5
:1007F0008340224A11680B43136000EB80002946B6
:100800001F4B03EB800000F0EDF8E26A1D4B1B6804
:10081000DB6A9A42DCD31C4B01221A60D8E70CB188
:10082000FFF7E8FC194B1C6884B9174B1C68D4B15E
:100830004FF0E0234FF08052C3F8042DBFF34F8FE9
:10084000BFF36F8F01240EE0013C07D0FFF718FFC4
:100850000028F9D00C4B01221A60F5E70B4B00225F
:100860001A60E2E7002400F0FFFA204638BD00BF1E
:100870006802002090020020C002002088020020B0
:1008800004030020900300207C020020800200204E
:1008900010B5A8B10446104B1B6843B14FF040039C
:1008A00083F31188BFF36F8FBFF34F8FFEE7FFF71E
:1008B000DFFE00212046FFF7CFFDFFF76DFF48B9AF
:1008C0004FF0E0234FF08052C3F8042DBFF34F8F59
:1008D000BFF36F8F10BD00BF6802002008B52D4B1D
:1008E0001B681BB12C4B01221A6008BD2A4B002249
:1008F0001A602A4B1B681B6B1A68B2F1A53F03D123
:100900005A68B2F1A53F1BD0244B186819683431DE
:10091000FFF76EFC224B1B68B3FA83F3DBB2C3F123
:100920001F0303EB83018A001E498A588AB94FF0DE
:10093000400383F31188BFF36F8FBFF34F8FFEE740
:100940009A68B2F1A53FDFD1DB68B3F1A53FDBD1F7
:10095000E0E7144803EB83018A00024451684968C8
:10096000516003EB830C4FEA8C020832024491423F
:1009700009D003EB83039A000A4B13445B68DA68DF
:10098000064B1A60B1E7486862469100054A0A447E
:100990005060EEE7680200207C02002090030020F7
:1009A0008802002004030020054B1B6833B1054B6F
:1009B0001B680BB100207047022070470120704770
:1009C000840200206802002000F1080343604FF019
:1009D000FF328260C360036100230360704700231D
:1009E0000361704743684B609A688A605160996000
:1009F0000861036801330360704730B40D68B5F1D6
:100A0000FF3F11D000F108031C465B681A68AA4238
:100A1000FAD963684B6099608C6061600861036813
:100A20000133036030BC70470469F2E70369416831
:100A300082688A60416851605A68824206D000220A
:100A400002611A68013A1A601868704782685A6031
:100A5000F5E7842801D0033070470020704708B5BF
:100A6000FFF7CCFD002008BD2DE9F04387B00E460E
:100A70004469C4B18569B5B14768D0F80080D0F841
:100A80001090B0F90800FFF7E4FF02950194009080
:100A900033464A4641463846FFF742FD05900598E1
:100AA00007B0BDE8F083446805680769B0F908003D
:100AB000FFF7CFFF05AB019300903346BAB229464A
:100AC0002046FFF768FD0128E9D00020E8E708B5D7
:100AD00000B90120FFF7DCFE002008BD08B5FFF7D4
:100AE00063FF012800D108BD00F00CFAFBE700000D
:100AF000124A12F0070F1ED0D11D21F00701C1F5D7
:100B0000005313440A460E4802600021416013441A
:100B1000083B23F007030B48036059601960991ADA
:100B200051601360084B1960084B1960084B4FF077
:100B300000421A6070474FF40053E4E7B40300200A
:100B4000AC030020A8030020A0030020A403002081
:100B500094030020164B1A461B688342FBD351684E
:100B600002EB010C844509D0416800EB010C6345A0
:100B700009D00360904219D010607047406801446A
:100B800051601046F0E710B40A4C2468A3420BD021
:100B90005B681944416013681B680360904200D091
:100BA00010605DF8044B70470460F7E7704700BFC2
:100BB000AC030020A803002038B50446FFF758FD19
:100BC0003D4B1B68ABB13D4B1B681C4214D1002C44
:100BD0006AD004F1080214F0070F02D022F00702D5
:100BE0000832D2B1364B1B6893421AD335490C6890
:100BF0001DE0FFF77DFFE6E7FFF7CEFD0025FFF7DD
:100C0000F8FA15F0070F55D04FF0400383F3118821
:100C1000BFF36F8FBFF34F8FFEE7FFF7BDFD0025DA
:100C2000EDE7FFF7B9FD0025E9E721461C466368BB
:100C3000934202D22368002BF7D11F4B1B68A342BB
:100C400014D00D68083523680B6063689B1A102B5D
:100C500014D9A01810F0070F0CD04FF0400383F305
:100C60001188BFF36F8FBFF34F8FFEE7FFF794FD3F
:100C70000025C4E743606260FFF76CFF62681049BB
:100C80000B689B1A0B60104909688B4201D20E4910
:100C90000B600A4B1B6813436360002323600B4AFD
:100CA00013680133136000E00025FFF775FD002D88
:100CB000A7D1A4E7284638BDA8030020940300204C
:100CC000A4030020AC030020A00300209C0300200C
:100CD000002834D038B50446A0F1080550F8043C8B
:100CE000174A1268134208D14FF0400383F311886A
:100CF000BFF36F8FBFF34F8FFEE750F8081C41B171
:100D00004FF0400383F31188BFF36F8FBFF34F8F12
:100D1000FEE723EA020340F8043CFFF7A9FC54F87D
:100D2000041C084A13680B4413602846FFF712FF9F
:100D3000054A136801331360FFF72EFD38BD704775
:100D400094030020A40300209803002082B0002315
:100D500001930D4B1B68B3F1FF3F08D04FF04003E8
:100D600083F31188BFF36F8FBFF34F8FFEE74FF010
:100D7000400383F31188BFF36F8FBFF34F8F019B45
:100D8000002BFCD002B07047040000200848006827
:100D9000006880F308884FF0000080F3148862B682
:100DA00061B6BFF34F8FBFF36F8F00DF00BF00004E
:100DB00008ED00E0DFF80C00016841F4700101600B
:100DC0007047000088ED00E04FF0807340F8043C6D
:100DD00021F0010140F8081C054B40F80C3C40F89C
:100DE000202C6FF0020340F8243C4438704700BFC9
:100DF0004D0D000000000000000000000000000099
:100E0000074B19680868B0E8F04F80F30988BFF312
:100E10006F8F4FF0000080F311887047AFF30080B0
:100E2000900300204FF0400383F31188BFF36F8FCE
:100E3000BFF34F8F0B4A136801331360012B00D0AF
:100E400070474FF0E023D3F8043D13F0FF0FF7D0C5
:100E50004FF0400383F31188BFF36F8FBFF34F8FC1
:100E6000FEE700BF04000020094B1B6843B94FF0A8
:100E7000400383F31188BFF36F8FBFF34F8FFEE7FB
:100E8000013B034A13600BB983F31188704700BF1D
:100E9000040000200000000000000000000000002E
:100EA000EFF30980BFF36F8F154B1A681EF0100F18
:100EB00008BF20ED108A20E9F04F10602DE90900ED
:100EC0004FF0400080F31188BFF34F8FBFF36F8F57
:100ED000FFF704FD4FF0000080F3118809BC19688A
:100EE0000868B0E8F04F1EF0100F08BFB0EC108A91
:100EF00080F30988BFF36F8F704700BFAFF30080A6
:100F00009003002008B54FF0400383F31188BFF32E
:100F10006F8FBFF34F8FFFF7B3FB28B14FF0E02384
:100F20004FF08052C3F8042D002383F3118808BDCD
:100F30004FF0E022002313619361054B1B680549C4
:100F4000A1FB03139B09013B536107231361704706
:100F500000000020D34D62104FF0E023D3F8002DA5
:100F60003D4B9A421CD04FF0E023D3F8002D3B4B71
:100F70009A421ED030B583B0394B1A78D2B2019262
:100F8000FF221A701B78DBB28DF803309DF8033016
:100F900003F04003334A1370334B07221A601BE0FF
:100FA0004FF0400383F31188BFF36F8FBFF34F8F70
:100FB000FEE74FF0400383F31188BFF36F8FBFF359
:100FC0004F8FFEE7284A1368013B13609DF80330FA
:100FD0005B00DBB28DF803309DF8033013F0800F17
:100FE000F0D1214B1B68042B08D04FF0400383F352
:100FF0001188BFF36F8FBFF34F8FFEE71B021A4AB2
:10100000136003F4E0631360019BDBB2144A1370B6
:101010004FF0E024D4F8203D43F46003C4F8203DB1
:10102000D4F8203D43F06043C4F8203DFFF780FF33
:1010300000250E4B1D60FFF7BDFED4F8343F43F092
:101040004043C4F8343FFFF7A1FEFFF747FCFFF72A
:101050007DFE284603B030BD71C20F4170C20F4102
:1010600000E400E0B8230020B423002004000020A6
:1010700002440346934200D1704703F8011BF9E78D
:10108000756172745461736B000000006465666181
:10109000756C745461736B00454D554C4943415F09
:1010A000544D34433132335F4652454552544F53C9
:1010B0005F4845415254424541540D0A000000002A
:1010C000454D554C4943415F544D34433132335FB4
:1010D0004652454552544F535F5541525454415323
:1010E0004B5F4F4B0D0A00008C10000035010000D3
:1010F0000000000000000000800000000000000070
:1011000000000000801000005101000000000000FD
:10111000000000008000000000000000000000004F
:0511200049444C4500AC
:04112800F8B500BF57
:04112C00F8B500BF53
:081130000024F400AAAAAAAAF7
:0400000300000045B4
:00000001FF
